{
  "contractName": "Asignatura",
  "abi": [
    {
      "inputs": [
        {
          "internalType": "string",
          "name": "_nombre",
          "type": "string"
        },
        {
          "internalType": "string",
          "name": "_curso",
          "type": "string"
        }
      ],
      "stateMutability": "nonpayable",
      "type": "constructor"
    },
    {
      "inputs": [
        {
          "internalType": "string",
          "name": "dni",
          "type": "string"
        }
      ],
      "name": "DNIDuplicadoError",
      "type": "error"
    },
    {
      "inputs": [
        {
          "internalType": "address",
          "name": "",
          "type": "address"
        },
        {
          "internalType": "uint256",
          "name": "",
          "type": "uint256"
        }
      ],
      "name": "calificaciones",
      "outputs": [
        {
          "internalType": "enum Asignatura.TipoNota",
          "name": "tipo",
          "type": "uint8"
        },
        {
          "internalType": "uint256",
          "name": "calificacion",
          "type": "uint256"
        }
      ],
      "stateMutability": "view",
      "type": "function",
      "constant": true
    },
    {
      "inputs": [],
      "name": "cerrada",
      "outputs": [
        {
          "internalType": "bool",
          "name": "",
          "type": "bool"
        }
      ],
      "stateMutability": "view",
      "type": "function",
      "constant": true
    },
    {
      "inputs": [],
      "name": "coordinador",
      "outputs": [
        {
          "internalType": "address",
          "name": "",
          "type": "address"
        }
      ],
      "stateMutability": "view",
      "type": "function",
      "constant": true
    },
    {
      "inputs": [],
      "name": "curso",
      "outputs": [
        {
          "internalType": "string",
          "name": "",
          "type": "string"
        }
      ],
      "stateMutability": "view",
      "type": "function",
      "constant": true
    },
    {
      "inputs": [
        {
          "internalType": "address",
          "name": "",
          "type": "address"
        }
      ],
      "name": "datosAlumno",
      "outputs": [
        {
          "internalType": "string",
          "name": "nombre",
          "type": "string"
        },
        {
          "internalType": "string",
          "name": "dni",
          "type": "string"
        },
        {
          "internalType": "string",
          "name": "email",
          "type": "string"
        }
      ],
      "stateMutability": "view",
      "type": "function",
      "constant": true
    },
    {
      "inputs": [
        {
          "internalType": "address",
          "name": "",
          "type": "address"
        }
      ],
      "name": "datosProfesor",
      "outputs": [
        {
          "internalType": "string",
          "name": "",
          "type": "string"
        }
      ],
      "stateMutability": "view",
      "type": "function",
      "constant": true
    },
    {
      "inputs": [
        {
          "internalType": "string",
          "name": "",
          "type": "string"
        }
      ],
      "name": "dniUsados",
      "outputs": [
        {
          "internalType": "address",
          "name": "",
          "type": "address"
        }
      ],
      "stateMutability": "view",
      "type": "function",
      "constant": true
    },
    {
      "inputs": [
        {
          "internalType": "uint256",
          "name": "",
          "type": "uint256"
        }
      ],
      "name": "evaluaciones",
      "outputs": [
        {
          "internalType": "string",
          "name": "nombre",
          "type": "string"
        },
        {
          "internalType": "uint256",
          "name": "fecha",
          "type": "uint256"
        },
        {
          "internalType": "uint256",
          "name": "porcentaje",
          "type": "uint256"
        },
        {
          "internalType": "uint256",
          "name": "minimo",
          "type": "uint256"
        }
      ],
      "stateMutability": "view",
      "type": "function",
      "constant": true
    },
    {
      "inputs": [
        {
          "internalType": "uint256",
          "name": "",
          "type": "uint256"
        }
      ],
      "name": "matriculas",
      "outputs": [
        {
          "internalType": "address",
          "name": "",
          "type": "address"
        }
      ],
      "stateMutability": "view",
      "type": "function",
      "constant": true
    },
    {
      "inputs": [],
      "name": "nombre",
      "outputs": [
        {
          "internalType": "string",
          "name": "",
          "type": "string"
        }
      ],
      "stateMutability": "view",
      "type": "function",
      "constant": true
    },
    {
      "inputs": [],
      "name": "owner",
      "outputs": [
        {
          "internalType": "address",
          "name": "",
          "type": "address"
        }
      ],
      "stateMutability": "view",
      "type": "function",
      "constant": true
    },
    {
      "inputs": [
        {
          "internalType": "uint256",
          "name": "",
          "type": "uint256"
        }
      ],
      "name": "profesores",
      "outputs": [
        {
          "internalType": "address",
          "name": "",
          "type": "address"
        }
      ],
      "stateMutability": "view",
      "type": "function",
      "constant": true
    },
    {
      "inputs": [],
      "name": "version",
      "outputs": [
        {
          "internalType": "string",
          "name": "",
          "type": "string"
        }
      ],
      "stateMutability": "view",
      "type": "function",
      "constant": true
    },
    {
      "stateMutability": "payable",
      "type": "receive",
      "payable": true
    },
    {
      "inputs": [
        {
          "internalType": "address",
          "name": "addr",
          "type": "address"
        }
      ],
      "name": "setCoordinador",
      "outputs": [],
      "stateMutability": "nonpayable",
      "type": "function"
    },
    {
      "inputs": [],
      "name": "cerrar",
      "outputs": [],
      "stateMutability": "nonpayable",
      "type": "function"
    },
    {
      "inputs": [
        {
          "internalType": "address",
          "name": "_addr",
          "type": "address"
        },
        {
          "internalType": "string",
          "name": "_nombre",
          "type": "string"
        }
      ],
      "name": "addProfesor",
      "outputs": [],
      "stateMutability": "nonpayable",
      "type": "function"
    },
    {
      "inputs": [],
      "name": "profesoresLength",
      "outputs": [
        {
          "internalType": "uint256",
          "name": "",
          "type": "uint256"
        }
      ],
      "stateMutability": "view",
      "type": "function",
      "constant": true
    },
    {
      "inputs": [
        {
          "internalType": "string",
          "name": "_nombre",
          "type": "string"
        },
        {
          "internalType": "string",
          "name": "_dni",
          "type": "string"
        },
        {
          "internalType": "string",
          "name": "_email",
          "type": "string"
        }
      ],
      "name": "automatricula",
      "outputs": [],
      "stateMutability": "nonpayable",
      "type": "function"
    },
    {
      "inputs": [
        {
          "internalType": "address",
          "name": "_addr",
          "type": "address"
        },
        {
          "internalType": "string",
          "name": "_nombre",
          "type": "string"
        },
        {
          "internalType": "string",
          "name": "_dni",
          "type": "string"
        },
        {
          "internalType": "string",
          "name": "_email",
          "type": "string"
        }
      ],
      "name": "matricular",
      "outputs": [],
      "stateMutability": "nonpayable",
      "type": "function"
    },
    {
      "inputs": [],
      "name": "matriculasLength",
      "outputs": [
        {
          "internalType": "uint256",
          "name": "",
          "type": "uint256"
        }
      ],
      "stateMutability": "view",
      "type": "function",
      "constant": true
    },
    {
      "inputs": [],
      "name": "quienSoy",
      "outputs": [
        {
          "internalType": "string",
          "name": "_nombre",
          "type": "string"
        },
        {
          "internalType": "string",
          "name": "_dni",
          "type": "string"
        },
        {
          "internalType": "string",
          "name": "_email",
          "type": "string"
        }
      ],
      "stateMutability": "view",
      "type": "function",
      "constant": true
    },
    {
      "inputs": [
        {
          "internalType": "string",
          "name": "_nombre",
          "type": "string"
        },
        {
          "internalType": "uint256",
          "name": "_fecha",
          "type": "uint256"
        },
        {
          "internalType": "uint256",
          "name": "_porcentaje",
          "type": "uint256"
        },
        {
          "internalType": "uint256",
          "name": "_minimo",
          "type": "uint256"
        }
      ],
      "name": "creaEvaluacion",
      "outputs": [
        {
          "internalType": "uint256",
          "name": "",
          "type": "uint256"
        }
      ],
      "stateMutability": "nonpayable",
      "type": "function"
    },
    {
      "inputs": [
        {
          "internalType": "uint256",
          "name": "_id",
          "type": "uint256"
        },
        {
          "internalType": "string",
          "name": "_nombre",
          "type": "string"
        },
        {
          "internalType": "uint256",
          "name": "_fecha",
          "type": "uint256"
        },
        {
          "internalType": "uint256",
          "name": "_porcentaje",
          "type": "uint256"
        },
        {
          "internalType": "uint256",
          "name": "_minimo",
          "type": "uint256"
        }
      ],
      "name": "editarEvaluacion",
      "outputs": [],
      "stateMutability": "nonpayable",
      "type": "function"
    },
    {
      "inputs": [],
      "name": "evaluacionesLength",
      "outputs": [
        {
          "internalType": "uint256",
          "name": "",
          "type": "uint256"
        }
      ],
      "stateMutability": "view",
      "type": "function",
      "constant": true
    },
    {
      "inputs": [
        {
          "internalType": "address",
          "name": "alumno",
          "type": "address"
        },
        {
          "internalType": "uint256",
          "name": "evaluacion",
          "type": "uint256"
        },
        {
          "internalType": "enum Asignatura.TipoNota",
          "name": "tipo",
          "type": "uint8"
        },
        {
          "internalType": "uint256",
          "name": "calificacion",
          "type": "uint256"
        }
      ],
      "name": "califica",
      "outputs": [],
      "stateMutability": "nonpayable",
      "type": "function"
    },
    {
      "inputs": [
        {
          "internalType": "uint256",
          "name": "evaluacion",
          "type": "uint256"
        }
      ],
      "name": "miNota",
      "outputs": [
        {
          "internalType": "enum Asignatura.TipoNota",
          "name": "tipo",
          "type": "uint8"
        },
        {
          "internalType": "uint256",
          "name": "calificacion",
          "type": "uint256"
        }
      ],
      "stateMutability": "view",
      "type": "function",
      "constant": true
    },
    {
      "inputs": [],
      "name": "miNotaFinal",
      "outputs": [
        {
          "internalType": "enum Asignatura.TipoNota",
          "name": "tipo",
          "type": "uint8"
        },
        {
          "internalType": "uint256",
          "name": "calificacion",
          "type": "uint256"
        }
      ],
      "stateMutability": "view",
      "type": "function",
      "constant": true
    },
    {
      "inputs": [
        {
          "internalType": "address",
          "name": "_addr",
          "type": "address"
        }
      ],
      "name": "notaFinal",
      "outputs": [
        {
          "internalType": "enum Asignatura.TipoNota",
          "name": "tipo",
          "type": "uint8"
        },
        {
          "internalType": "uint256",
          "name": "calificacion",
          "type": "uint256"
        }
      ],
      "stateMutability": "view",
      "type": "function",
      "constant": true
    }
  ],
  "bytecode": "0x60806040526040518060400160405280600981526020017f323032322046756c6c0000000000000000000000000000000000000000000000815250600090816200004a9190620003f3565b503480156200005857600080fd5b50604051620045c2380380620045c283398181016040528101906200007e91906200063e565b6000825103620000c5576040517f08c379a0000000000000000000000000000000000000000000000000000000008152600401620000bc906200074a565b60405180910390fd5b60008151036200010c576040517f08c379a00000000000000000000000000000000000000000000000000000000081526004016200010390620007e2565b60405180910390fd5b33600160006101000a81548173ffffffffffffffffffffffffffffffffffffffff021916908373ffffffffffffffffffffffffffffffffffffffff16021790555081600390816200015e9190620003f3565b508060049081620001709190620003f3565b50505062000804565b600081519050919050565b7f4e487b7100000000000000000000000000000000000000000000000000000000600052604160045260246000fd5b7f4e487b7100000000000000000000000000000000000000000000000000000000600052602260045260246000fd5b60006002820490506001821680620001fb57607f821691505b602082108103620002115762000210620001b3565b5b50919050565b60008190508160005260206000209050919050565b60006020601f8301049050919050565b600082821b905092915050565b6000600883026200027b7fffffffffffffffffffffffffffffffffffffffffffffffffffffffffffffffff826200023c565b6200028786836200023c565b95508019841693508086168417925050509392505050565b6000819050919050565b6000819050919050565b6000620002d4620002ce620002c8846200029f565b620002a9565b6200029f565b9050919050565b6000819050919050565b620002f083620002b3565b62000308620002ff82620002db565b84845462000249565b825550505050565b600090565b6200031f62000310565b6200032c818484620002e5565b505050565b5b8181101562000354576200034860008262000315565b60018101905062000332565b5050565b601f821115620003a3576200036d8162000217565b62000378846200022c565b8101602085101562000388578190505b620003a062000397856200022c565b83018262000331565b50505b505050565b600082821c905092915050565b6000620003c860001984600802620003a8565b1980831691505092915050565b6000620003e38383620003b5565b9150826002028217905092915050565b620003fe8262000179565b67ffffffffffffffff8111156200041a576200041962000184565b5b620004268254620001e2565b6200043382828562000358565b600060209050601f8311600181146200046b576000841562000456578287015190505b620004628582620003d5565b865550620004d2565b601f1984166200047b8662000217565b60005b82811015620004a5578489015182556001820191506020850194506020810190506200047e565b86831015620004c55784890151620004c1601f891682620003b5565b8355505b6001600288020188555050505b505050505050565b6000604051905090565b600080fd5b600080fd5b600080fd5b600080fd5b6000601f19601f8301169050919050565b6200051482620004f8565b810181811067ffffffffffffffff8211171562000536576200053562000184565b5b80604052505050565b60006200054b620004da565b905062000559828262000509565b919050565b600067ffffffffffffffff8211156200057c576200057b62000184565b5b6200058782620004f8565b9050602081019050919050565b60005b83811015620005b457808201518184015260208101905062000597565b60008484015250505050565b6000620005d7620005d1846200055e565b6200053f565b905082815260208101848484011115620005f657620005f5620004f3565b5b6200060384828562000594565b509392505050565b600082601f830112620006235762000622620004ee565b5b815162000635848260208601620005c0565b91505092915050565b60008060408385031215620006585762000657620004e4565b5b600083015167ffffffffffffffff811115620006795762000678620004e9565b5b62000687858286016200060b565b925050602083015167ffffffffffffffff811115620006ab57620006aa620004e9565b5b620006b9858286016200060b565b9150509250929050565b600082825260208201905092915050565b7f456c206e6f6d627265206465206c6120617369676e6174757261206e6f20707560008201527f6564652073657220766163696f00000000000000000000000000000000000000602082015250565b600062000732602d83620006c3565b91506200073f82620006d4565b604082019050919050565b60006020820190508181036000830152620007658162000723565b9050919050565b7f456c20637572736f2061636164656d69636f206465206c6120617369676e617460008201527f757261206e6f2070756564652073657220766163696f00000000000000000000602082015250565b6000620007ca603683620006c3565b9150620007d7826200076c565b604082019050919050565b60006020820190508181036000830152620007fd81620007bb565b9050919050565b613dae80620008146000396000f3fe6080604052600436106101bb5760003560e01c80636bf8aad6116100ec578063c83737501161008a578063d51b458411610064578063d51b4584146106bd578063dab6ff28146106e6578063deafcc41146106fd578063f967f98614610728576101fb565b8063c837375014610616578063d00de47a14610653578063d27c3f3c1461067f576101fb565b80638da5cb5b116100c65780638da5cb5b146105585780639e1d8f4b14610583578063bc7b35b2146105ae578063c7918139146105d9576101fb565b80636bf8aad6146104c5578063779390e6146105045780637810ff1e1461052d576101fb565b8063488cf4f51161015957806354fd4d501161013357806354fd4d50146103f65780635aa4ffe614610421578063641945bf1461045f578063681d4ca61461049c576101fb565b8063488cf4f514610361578063526a8ec61461038c57806353766883146103c9576101fb565b806330322c9b1161019557806330322c9b1461029157806342a6dde2146102ba57806344f7a8cc146102f857806347ba31da14610338576101fb565b8063034856d7146102005780631d2e4d2b1461023d57806322c4e39414610266576101fb565b366101fb576040517f08c379a00000000000000000000000000000000000000000000000000000000081526004016101f290612768565b60405180910390fd5b600080fd5b34801561020c57600080fd5b5061022760048036038101906102229190612918565b610753565b60405161023491906129aa565b60405180910390f35b34801561024957600080fd5b50610264600480360381019061025f9190612a23565b610917565b005b34801561027257600080fd5b5061027b610b7d565b6040516102889190612a9a565b60405180910390f35b34801561029d57600080fd5b506102b860048036038101906102b39190612ada565b610b90565b005b3480156102c657600080fd5b506102e160048036038101906102dc9190612b41565b610e85565b6040516102ef929190612bf8565b60405180910390f35b34801561030457600080fd5b5061031f600480360381019061031a9190612c21565b610ec3565b60405161032f9493929190612cbc565b60405180910390f35b34801561034457600080fd5b5061035f600480360381019061035a9190612d08565b610f8b565b005b34801561036d57600080fd5b506103766110c6565b60405161038391906129aa565b60405180910390f35b34801561039857600080fd5b506103b360048036038101906103ae9190612dc3565b6110d3565b6040516103c09190612e1b565b60405180910390f35b3480156103d557600080fd5b506103de61111c565b6040516103ed93929190612e36565b60405180910390f35b34801561040257600080fd5b5061040b611388565b6040516104189190612e82565b60405180910390f35b34801561042d57600080fd5b5061044860048036038101906104439190612ea4565b611416565b604051610456929190612bf8565b60405180910390f35b34801561046b57600080fd5b5061048660048036038101906104819190612ea4565b6115a2565b6040516104939190612e82565b60405180910390f35b3480156104a857600080fd5b506104c360048036038101906104be9190612ed1565b611642565b005b3480156104d157600080fd5b506104ec60048036038101906104e79190612ea4565b6116ec565b6040516104fb93929190612e36565b60405180910390f35b34801561051057600080fd5b5061052b60048036038101906105269190612f78565b6118ae565b005b34801561053957600080fd5b50610542611a53565b60405161054f9190612e1b565b60405180910390f35b34801561056457600080fd5b5061056d611a79565b60405161057a9190612e1b565b60405180910390f35b34801561058f57600080fd5b50610598611a9f565b6040516105a591906129aa565b60405180910390f35b3480156105ba57600080fd5b506105c3611aac565b6040516105d09190612e82565b60405180910390f35b3480156105e557600080fd5b5061060060048036038101906105fb9190612c21565b611b3a565b60405161060d9190612e1b565b60405180910390f35b34801561062257600080fd5b5061063d60048036038101906106389190612c21565b611b79565b60405161064a9190612e1b565b60405180910390f35b34801561065f57600080fd5b50610668611bb8565b604051610676929190612bf8565b60405180910390f35b34801561068b57600080fd5b506106a660048036038101906106a19190612c21565b611c14565b6040516106b4929190612bf8565b60405180910390f35b3480156106c957600080fd5b506106e460048036038101906106df9190612ea4565b611d5e565b005b3480156106f257600080fd5b506106fb611e82565b005b34801561070957600080fd5b50610712611f2f565b60405161071f9190612e82565b60405180910390f35b34801561073457600080fd5b5061073d611fbd565b60405161074a91906129aa565b60405180910390f35b6000600260009054906101000a900473ffffffffffffffffffffffffffffffffffffffff1673ffffffffffffffffffffffffffffffffffffffff163373ffffffffffffffffffffffffffffffffffffffff16146107e5576040517f08c379a00000000000000000000000000000000000000000000000000000000081526004016107dc9061305b565b60405180910390fd5b600260149054906101000a900460ff1615610835576040517f08c379a000000000000000000000000000000000000000000000000000000000815260040161082c906130ed565b60405180910390fd5b6000855103610879576040517f08c379a00000000000000000000000000000000000000000000000000000000081526004016108709061317f565b60405180910390fd5b600a604051806080016040528087815260200186815260200185815260200184815250908060018154018082558091505060019003906000526020600020906004020160009091909190915060008201518160000190816108da91906133ab565b5060208201518160010155604082015181600201556060820151816003015550506001600a8054905061090d91906134ac565b9050949350505050565b600160009054906101000a900473ffffffffffffffffffffffffffffffffffffffff1673ffffffffffffffffffffffffffffffffffffffff163373ffffffffffffffffffffffffffffffffffffffff16146109a7576040517f08c379a000000000000000000000000000000000000000000000000000000000815260040161099e9061352c565b60405180910390fd5b600260149054906101000a900460ff16156109f7576040517f08c379a00000000000000000000000000000000000000000000000000000000081526004016109ee906130ed565b60405180910390fd5b6000600560008473ffffffffffffffffffffffffffffffffffffffff1673ffffffffffffffffffffffffffffffffffffffff1681526020019081526020016000208054610a43906131ce565b905014610a85576040517f08c379a0000000000000000000000000000000000000000000000000000000008152600401610a7c906135be565b60405180910390fd5b6000815103610ac9576040517f08c379a0000000000000000000000000000000000000000000000000000000008152600401610ac090613650565b60405180910390fd5b80600560008473ffffffffffffffffffffffffffffffffffffffff1673ffffffffffffffffffffffffffffffffffffffff1681526020019081526020016000209081610b1591906133ab565b506006829080600181540180825580915050600190039060005260206000200160009091909190916101000a81548173ffffffffffffffffffffffffffffffffffffffff021916908373ffffffffffffffffffffffffffffffffffffffff1602179055505050565b600260149054906101000a900460ff1681565b6000600560003373ffffffffffffffffffffffffffffffffffffffff1673ffffffffffffffffffffffffffffffffffffffff1681526020019081526020016000208054610bdc906131ce565b80601f0160208091040260200160405190810160405280929190818152602001828054610c08906131ce565b8015610c555780601f10610c2a57610100808354040283529160200191610c55565b820191906000526020600020905b815481529060010190602001808311610c3857829003601f168201915b505050505090506000815103610ca0576040517f08c379a0000000000000000000000000000000000000000000000000000000008152600401610c97906136bc565b60405180910390fd5b600260149054906101000a900460ff1615610cf0576040517f08c379a0000000000000000000000000000000000000000000000000000000008152600401610ce7906130ed565b60405180910390fd5b610cf985611fca565b610d38576040517f08c379a0000000000000000000000000000000000000000000000000000000008152600401610d2f9061374e565b60405180910390fd5b600a805490508410610d7f576040517f08c379a0000000000000000000000000000000000000000000000000000000008152600401610d76906137e0565b60405180910390fd5b6103e8821115610dc4576040517f08c379a0000000000000000000000000000000000000000000000000000000008152600401610dbb90613898565b60405180910390fd5b60006040518060400160405280856002811115610de457610de3612b81565b5b815260200184815250905080600b60008873ffffffffffffffffffffffffffffffffffffffff1673ffffffffffffffffffffffffffffffffffffffff168152602001908152602001600020600087815260200190815260200160002060008201518160000160006101000a81548160ff02191690836002811115610e6b57610e6a612b81565b5b021790555060208201518160010155905050505050505050565b600b602052816000526040600020602052806000526040600020600091509150508060000160009054906101000a900460ff16908060010154905082565b600a8181548110610ed357600080fd5b9060005260206000209060040201600091509050806000018054610ef6906131ce565b80601f0160208091040260200160405190810160405280929190818152602001828054610f22906131ce565b8015610f6f5780601f10610f4457610100808354040283529160200191610f6f565b820191906000526020600020905b815481529060010190602001808311610f5257829003601f168201915b5050505050908060010154908060020154908060030154905084565b600160009054906101000a900473ffffffffffffffffffffffffffffffffffffffff1673ffffffffffffffffffffffffffffffffffffffff163373ffffffffffffffffffffffffffffffffffffffff161461101b576040517f08c379a00000000000000000000000000000000000000000000000000000000081526004016110129061352c565b60405180910390fd5b61102433611fca565b15611064576040517f08c379a000000000000000000000000000000000000000000000000000000000815260040161105b9061392a565b60405180910390fd5b600260149054906101000a900460ff16156110b4576040517f08c379a00000000000000000000000000000000000000000000000000000000081526004016110ab906130ed565b60405180910390fd5b6110c0848484846120a8565b50505050565b6000600a80549050905090565b6009818051602081018201805184825260208301602085012081835280955050505050506000915054906101000a900473ffffffffffffffffffffffffffffffffffffffff1681565b606080606061112a33611fca565b611169576040517f08c379a0000000000000000000000000000000000000000000000000000000008152600401611160906139bc565b60405180910390fd5b6000600760003373ffffffffffffffffffffffffffffffffffffffff1673ffffffffffffffffffffffffffffffffffffffff1681526020019081526020016000206040518060600160405290816000820180546111c5906131ce565b80601f01602080910402602001604051908101604052809291908181526020018280546111f1906131ce565b801561123e5780601f106112135761010080835404028352916020019161123e565b820191906000526020600020905b81548152906001019060200180831161122157829003601f168201915b50505050508152602001600182018054611257906131ce565b80601f0160208091040260200160405190810160405280929190818152602001828054611283906131ce565b80156112d05780601f106112a5576101008083540402835291602001916112d0565b820191906000526020600020905b8154815290600101906020018083116112b357829003601f168201915b505050505081526020016002820180546112e9906131ce565b80601f0160208091040260200160405190810160405280929190818152602001828054611315906131ce565b80156113625780601f1061133757610100808354040283529160200191611362565b820191906000526020600020905b81548152906001019060200180831161134557829003601f168201915b505050505081525050905080600001519350806020015192508060400151915050909192565b60008054611395906131ce565b80601f01602080910402602001604051908101604052809291908181526020018280546113c1906131ce565b801561140e5780601f106113e35761010080835404028352916020019161140e565b820191906000526020600020905b8154815290600101906020018083116113f157829003601f168201915b505050505081565b6000806000600560003373ffffffffffffffffffffffffffffffffffffffff1673ffffffffffffffffffffffffffffffffffffffff1681526020019081526020016000208054611465906131ce565b80601f0160208091040260200160405190810160405280929190818152602001828054611491906131ce565b80156114de5780601f106114b3576101008083540402835291602001916114de565b820191906000526020600020905b8154815290600101906020018083116114c157829003601f168201915b50505050509050600260009054906101000a900473ffffffffffffffffffffffffffffffffffffffff1673ffffffffffffffffffffffffffffffffffffffff163373ffffffffffffffffffffffffffffffffffffffff161480611550575060006003805461154b906131ce565b905014155b61158f576040517f08c379a000000000000000000000000000000000000000000000000000000000815260040161158690613a4e565b60405180910390fd5b611598846123e3565b9250925050915091565b600560205280600052604060002060009150905080546115c1906131ce565b80601f01602080910402602001604051908101604052809291908181526020018280546115ed906131ce565b801561163a5780601f1061160f5761010080835404028352916020019161163a565b820191906000526020600020905b81548152906001019060200180831161161d57829003601f168201915b505050505081565b61164b33611fca565b1561168b576040517f08c379a00000000000000000000000000000000000000000000000000000000081526004016116829061392a565b60405180910390fd5b600260149054906101000a900460ff16156116db576040517f08c379a00000000000000000000000000000000000000000000000000000000081526004016116d2906130ed565b60405180910390fd5b6116e7338484846120a8565b505050565b600760205280600052604060002060009150905080600001805461170f906131ce565b80601f016020809104026020016040519081016040528092919081815260200182805461173b906131ce565b80156117885780601f1061175d57610100808354040283529160200191611788565b820191906000526020600020905b81548152906001019060200180831161176b57829003601f168201915b50505050509080600101805461179d906131ce565b80601f01602080910402602001604051908101604052809291908181526020018280546117c9906131ce565b80156118165780601f106117eb57610100808354040283529160200191611816565b820191906000526020600020905b8154815290600101906020018083116117f957829003601f168201915b50505050509080600201805461182b906131ce565b80601f0160208091040260200160405190810160405280929190818152602001828054611857906131ce565b80156118a45780601f10611879576101008083540402835291602001916118a4565b820191906000526020600020905b81548152906001019060200180831161188757829003601f168201915b5050505050905083565b600260009054906101000a900473ffffffffffffffffffffffffffffffffffffffff1673ffffffffffffffffffffffffffffffffffffffff163373ffffffffffffffffffffffffffffffffffffffff161461193e576040517f08c379a00000000000000000000000000000000000000000000000000000000081526004016119359061305b565b60405180910390fd5b600260149054906101000a900460ff161561198e576040517f08c379a0000000000000000000000000000000000000000000000000000000008152600401611985906130ed565b60405180910390fd5b60008451036119d2576040517f08c379a00000000000000000000000000000000000000000000000000000000081526004016119c99061317f565b60405180910390fd5b604051806080016040528085815260200184815260200183815260200182815250600a8681548110611a0757611a06613a6e565b5b90600052602060002090600402016000820151816000019081611a2a91906133ab565b506020820151816001015560408201518160020155606082015181600301559050505050505050565b600260009054906101000a900473ffffffffffffffffffffffffffffffffffffffff1681565b600160009054906101000a900473ffffffffffffffffffffffffffffffffffffffff1681565b6000600880549050905090565b60038054611ab9906131ce565b80601f0160208091040260200160405190810160405280929190818152602001828054611ae5906131ce565b8015611b325780601f10611b0757610100808354040283529160200191611b32565b820191906000526020600020905b815481529060010190602001808311611b1557829003601f168201915b505050505081565b60088181548110611b4a57600080fd5b906000526020600020016000915054906101000a900473ffffffffffffffffffffffffffffffffffffffff1681565b60068181548110611b8957600080fd5b906000526020600020016000915054906101000a900473ffffffffffffffffffffffffffffffffffffffff1681565b600080611bc433611fca565b611c03576040517f08c379a0000000000000000000000000000000000000000000000000000000008152600401611bfa906139bc565b60405180910390fd5b611c0c336123e3565b915091509091565b600080611c2033611fca565b611c5f576040517f08c379a0000000000000000000000000000000000000000000000000000000008152600401611c56906139bc565b60405180910390fd5b600a805490508310611ca6576040517f08c379a0000000000000000000000000000000000000000000000000000000008152600401611c9d90613b0f565b60405180910390fd5b6000600b60003373ffffffffffffffffffffffffffffffffffffffff1673ffffffffffffffffffffffffffffffffffffffff16815260200190815260200160002060008581526020019081526020016000206040518060400160405290816000820160009054906101000a900460ff166002811115611d2857611d27612b81565b5b6002811115611d3a57611d39612b81565b5b81526020016001820154815250509050806000015192508060200151915050915091565b600160009054906101000a900473ffffffffffffffffffffffffffffffffffffffff1673ffffffffffffffffffffffffffffffffffffffff163373ffffffffffffffffffffffffffffffffffffffff1614611dee576040517f08c379a0000000000000000000000000000000000000000000000000000000008152600401611de59061352c565b60405180910390fd5b600260149054906101000a900460ff1615611e3e576040517f08c379a0000000000000000000000000000000000000000000000000000000008152600401611e35906130ed565b60405180910390fd5b80600260006101000a81548173ffffffffffffffffffffffffffffffffffffffff021916908373ffffffffffffffffffffffffffffffffffffffff16021790555050565b600260009054906101000a900473ffffffffffffffffffffffffffffffffffffffff1673ffffffffffffffffffffffffffffffffffffffff163373ffffffffffffffffffffffffffffffffffffffff1614611f12576040517f08c379a0000000000000000000000000000000000000000000000000000000008152600401611f099061305b565b60405180910390fd5b6001600260146101000a81548160ff021916908315150217905550565b60048054611f3c906131ce565b80601f0160208091040260200160405190810160405280929190818152602001828054611f68906131ce565b8015611fb55780601f10611f8a57610100808354040283529160200191611fb5565b820191906000526020600020905b815481529060010190602001808311611f9857829003601f168201915b505050505081565b6000600680549050905090565b600080600760008473ffffffffffffffffffffffffffffffffffffffff1673ffffffffffffffffffffffffffffffffffffffff168152602001908152602001600020600001805461201a906131ce565b80601f0160208091040260200160405190810160405280929190818152602001828054612046906131ce565b80156120935780601f1061206857610100808354040283529160200191612093565b820191906000526020600020905b81548152906001019060200180831161207657829003601f168201915b50505050509050600081511415915050919050565b6120b133611fca565b156120f1576040517f08c379a00000000000000000000000000000000000000000000000000000000081526004016120e89061392a565b60405180910390fd5b600260149054906101000a900460ff1615612141576040517f08c379a0000000000000000000000000000000000000000000000000000000008152600401612138906130ed565b60405180910390fd5b6000835103612185576040517f08c379a000000000000000000000000000000000000000000000000000000000815260040161217c90613b7b565b60405180910390fd5b60008251036121c9576040517f08c379a00000000000000000000000000000000000000000000000000000000081526004016121c090613be7565b60405180910390fd5b600073ffffffffffffffffffffffffffffffffffffffff166009836040516121f19190613c43565b908152602001604051809103902060009054906101000a900473ffffffffffffffffffffffffffffffffffffffff1673ffffffffffffffffffffffffffffffffffffffff161461227857816040517f96ac92d100000000000000000000000000000000000000000000000000000000815260040161226f9190612e82565b60405180910390fd5b6000604051806060016040528085815260200184815260200183815250905080600760008773ffffffffffffffffffffffffffffffffffffffff1673ffffffffffffffffffffffffffffffffffffffff16815260200190815260200160002060008201518160000190816122ec91906133ab565b50602082015181600101908161230291906133ab565b50604082015181600201908161231891906133ab565b509050508460098460405161232d9190613c43565b908152602001604051809103902060006101000a81548173ffffffffffffffffffffffffffffffffffffffff021916908373ffffffffffffffffffffffffffffffffffffffff1602179055506008859080600181540180825580915050600190039060005260206000200160009091909190916101000a81548173ffffffffffffffffffffffffffffffffffffffff021916908373ffffffffffffffffffffffffffffffffffffffff1602179055505050505050565b6000806001915060005b600a8054905081101561253b576000600281111561240e5761240d612b81565b5b600b60008673ffffffffffffffffffffffffffffffffffffffff1673ffffffffffffffffffffffffffffffffffffffff168152602001908152602001600020600083815260200190815260200160002060000160009054906101000a900460ff16600281111561248157612480612b81565b5b036124935760008092509250506126e0565b6002808111156124a6576124a5612b81565b5b600b60008673ffffffffffffffffffffffffffffffffffffffff1673ffffffffffffffffffffffffffffffffffffffff168152602001908152602001600020600083815260200190815260200160002060000160009054906101000a900460ff16600281111561251957612518612b81565b5b036125275760029250612528565b5b808061253390613c5a565b9150506123ed565b50600160028111156125505761254f612b81565b5b82600281111561256357612562612b81565b5b0361257457816000915091506126e0565b60008060005b600a805490508110156126bc57600a818154811061259b5761259a613a6e565b5b906000526020600020906004020160030154600b60008873ffffffffffffffffffffffffffffffffffffffff1673ffffffffffffffffffffffffffffffffffffffff168152602001908152602001600020600083815260200190815260200160002060010154101561260c57600192505b6064600a828154811061262257612621613a6e565b5b906000526020600020906004020160020154600b60008973ffffffffffffffffffffffffffffffffffffffff1673ffffffffffffffffffffffffffffffffffffffff1681526020019081526020016000206000848152602001908152602001600020600101546126929190613ca2565b61269c9190613d13565b826126a79190613d44565b915080806126b490613c5a565b91505061257a565b508180156126cb57506101f381115b156126d6576101f390505b6002935080925050505b915091565b600082825260208201905092915050565b7f4e6f207365207065726d697465206c6120726563657063696f6e20646520646960008201527f6e65726f2e000000000000000000000000000000000000000000000000000000602082015250565b60006127526025836126e5565b915061275d826126f6565b604082019050919050565b6000602082019050818103600083015261278181612745565b9050919050565b6000604051905090565b600080fd5b600080fd5b600080fd5b600080fd5b6000601f19601f8301169050919050565b7f4e487b7100000000000000000000000000000000000000000000000000000000600052604160045260246000fd5b6127ef826127a6565b810181811067ffffffffffffffff8211171561280e5761280d6127b7565b5b80604052505050565b6000612821612788565b905061282d82826127e6565b919050565b600067ffffffffffffffff82111561284d5761284c6127b7565b5b612856826127a6565b9050602081019050919050565b82818337600083830152505050565b600061288561288084612832565b612817565b9050828152602081018484840111156128a1576128a06127a1565b5b6128ac848285612863565b509392505050565b600082601f8301126128c9576128c861279c565b5b81356128d9848260208601612872565b91505092915050565b6000819050919050565b6128f5816128e2565b811461290057600080fd5b50565b600081359050612912816128ec565b92915050565b6000806000806080858703121561293257612931612792565b5b600085013567ffffffffffffffff8111156129505761294f612797565b5b61295c878288016128b4565b945050602061296d87828801612903565b935050604061297e87828801612903565b925050606061298f87828801612903565b91505092959194509250565b6129a4816128e2565b82525050565b60006020820190506129bf600083018461299b565b92915050565b600073ffffffffffffffffffffffffffffffffffffffff82169050919050565b60006129f0826129c5565b9050919050565b612a00816129e5565b8114612a0b57600080fd5b50565b600081359050612a1d816129f7565b92915050565b60008060408385031215612a3a57612a39612792565b5b6000612a4885828601612a0e565b925050602083013567ffffffffffffffff811115612a6957612a68612797565b5b612a75858286016128b4565b9150509250929050565b60008115159050919050565b612a9481612a7f565b82525050565b6000602082019050612aaf6000830184612a8b565b92915050565b60038110612ac257600080fd5b50565b600081359050612ad481612ab5565b92915050565b60008060008060808587031215612af457612af3612792565b5b6000612b0287828801612a0e565b9450506020612b1387828801612903565b9350506040612b2487828801612ac5565b9250506060612b3587828801612903565b91505092959194509250565b60008060408385031215612b5857612b57612792565b5b6000612b6685828601612a0e565b9250506020612b7785828601612903565b9150509250929050565b7f4e487b7100000000000000000000000000000000000000000000000000000000600052602160045260246000fd5b60038110612bc157612bc0612b81565b5b50565b6000819050612bd282612bb0565b919050565b6000612be282612bc4565b9050919050565b612bf281612bd7565b82525050565b6000604082019050612c0d6000830185612be9565b612c1a602083018461299b565b9392505050565b600060208284031215612c3757612c36612792565b5b6000612c4584828501612903565b91505092915050565b600081519050919050565b60005b83811015612c77578082015181840152602081019050612c5c565b60008484015250505050565b6000612c8e82612c4e565b612c9881856126e5565b9350612ca8818560208601612c59565b612cb1816127a6565b840191505092915050565b60006080820190508181036000830152612cd68187612c83565b9050612ce5602083018661299b565b612cf2604083018561299b565b612cff606083018461299b565b95945050505050565b60008060008060808587031215612d2257612d21612792565b5b6000612d3087828801612a0e565b945050602085013567ffffffffffffffff811115612d5157612d50612797565b5b612d5d878288016128b4565b935050604085013567ffffffffffffffff811115612d7e57612d7d612797565b5b612d8a878288016128b4565b925050606085013567ffffffffffffffff811115612dab57612daa612797565b5b612db7878288016128b4565b91505092959194509250565b600060208284031215612dd957612dd8612792565b5b600082013567ffffffffffffffff811115612df757612df6612797565b5b612e03848285016128b4565b91505092915050565b612e15816129e5565b82525050565b6000602082019050612e306000830184612e0c565b92915050565b60006060820190508181036000830152612e508186612c83565b90508181036020830152612e648185612c83565b90508181036040830152612e788184612c83565b9050949350505050565b60006020820190508181036000830152612e9c8184612c83565b905092915050565b600060208284031215612eba57612eb9612792565b5b6000612ec884828501612a0e565b91505092915050565b600080600060608486031215612eea57612ee9612792565b5b600084013567ffffffffffffffff811115612f0857612f07612797565b5b612f14868287016128b4565b935050602084013567ffffffffffffffff811115612f3557612f34612797565b5b612f41868287016128b4565b925050604084013567ffffffffffffffff811115612f6257612f61612797565b5b612f6e868287016128b4565b9150509250925092565b600080600080600060a08688031215612f9457612f93612792565b5b6000612fa288828901612903565b955050602086013567ffffffffffffffff811115612fc357612fc2612797565b5b612fcf888289016128b4565b9450506040612fe088828901612903565b9350506060612ff188828901612903565b925050608061300288828901612903565b9150509295509295909350565b7f536f6c6f207065726d697469646f20616c20636f6f7264696e61646f72000000600082015250565b6000613045601d836126e5565b91506130508261300f565b602082019050919050565b6000602082019050818103600083015261307481613038565b9050919050565b7f536f6c6f207065726d697469646f207369206c6120617369676e61747572612060008201527f6e6f206573746120636572726164610000000000000000000000000000000000602082015250565b60006130d7602f836126e5565b91506130e28261307b565b604082019050919050565b60006020820190508181036000830152613106816130ca565b9050919050565b7f456c206e6f6d627265206465206c61206576616c756163696f6e206e6f20707560008201527f6564652073657220766163696f00000000000000000000000000000000000000602082015250565b6000613169602d836126e5565b91506131748261310d565b604082019050919050565b600060208201905081810360008301526131988161315c565b9050919050565b7f4e487b7100000000000000000000000000000000000000000000000000000000600052602260045260246000fd5b600060028204905060018216806131e657607f821691505b6020821081036131f9576131f861319f565b5b50919050565b60008190508160005260206000209050919050565b60006020601f8301049050919050565b600082821b905092915050565b6000600883026132617fffffffffffffffffffffffffffffffffffffffffffffffffffffffffffffffff82613224565b61326b8683613224565b95508019841693508086168417925050509392505050565b6000819050919050565b60006132a86132a361329e846128e2565b613283565b6128e2565b9050919050565b6000819050919050565b6132c28361328d565b6132d66132ce826132af565b848454613231565b825550505050565b600090565b6132eb6132de565b6132f68184846132b9565b505050565b5b8181101561331a5761330f6000826132e3565b6001810190506132fc565b5050565b601f82111561335f57613330816131ff565b61333984613214565b81016020851015613348578190505b61335c61335485613214565b8301826132fb565b50505b505050565b600082821c905092915050565b600061338260001984600802613364565b1980831691505092915050565b600061339b8383613371565b9150826002028217905092915050565b6133b482612c4e565b67ffffffffffffffff8111156133cd576133cc6127b7565b5b6133d782546131ce565b6133e282828561331e565b600060209050601f8311600181146134155760008415613403578287015190505b61340d858261338f565b865550613475565b601f198416613423866131ff565b60005b8281101561344b57848901518255600182019150602085019450602081019050613426565b868310156134685784890151613464601f891682613371565b8355505b6001600288020188555050505b505050505050565b7f4e487b7100000000000000000000000000000000000000000000000000000000600052601160045260246000fd5b60006134b7826128e2565b91506134c2836128e2565b92508282039050818111156134da576134d961347d565b5b92915050565b7f536f6c6f207065726d697469646f20616c206f776e6572000000000000000000600082015250565b60006135166017836126e5565b9150613521826134e0565b602082019050919050565b6000602082019050818103600083015261354581613509565b9050919050565b7f4573652070726f6665736f72207961206861207369646f20616464656420636f60008201527f6d6f2070726f6665736f72000000000000000000000000000000000000000000602082015250565b60006135a8602b836126e5565b91506135b38261354c565b604082019050919050565b600060208201905081810360008301526135d78161359b565b9050919050565b7f456c206e6f6d6272652064652070726f6665736f72206e6f207075656465207360008201527f657220766163696f000000000000000000000000000000000000000000000000602082015250565b600061363a6028836126e5565b9150613645826135de565b604082019050919050565b600060208201905081810360008301526136698161362d565b9050919050565b7f536f6c6f207065726d697469646f20616c2070726f6665736f72000000000000600082015250565b60006136a6601a836126e5565b91506136b182613670565b602082019050919050565b600060208201905081810360008301526136d581613699565b9050919050565b7f536f6c6f2073652070756564656e2063616c696669636172206120756e20616c60008201527f756d6e6f206d6174726963756c61646f2e000000000000000000000000000000602082015250565b60006137386031836126e5565b9150613743826136dc565b604082019050919050565b600060208201905081810360008301526137678161372b565b9050919050565b7f4e6f2073652070756564652063616c69666963617220756e61206576616c756160008201527f63696f6e20717565206e6f206578697374652e00000000000000000000000000602082015250565b60006137ca6033836126e5565b91506137d58261376e565b604082019050919050565b600060208201905081810360008301526137f9816137bd565b9050919050565b7f4e6f2073652070756564652063616c69666963617220636f6e20756e61206e6f60008201527f7461207375706572696f722061206c61206d6178696d61207065726d6974696460208201527f612e000000000000000000000000000000000000000000000000000000000000604082015250565b60006138826042836126e5565b915061388d82613800565b606082019050919050565b600060208201905081810360008301526138b181613875565b9050919050565b7f536f6c6f207065726d697469646f206120616c756d6e6f73206e6f206d61747260008201527f6963756c61646f73000000000000000000000000000000000000000000000000602082015250565b60006139146028836126e5565b915061391f826138b8565b604082019050919050565b6000602082019050818103600083015261394381613907565b9050919050565b7f536f6c6f207065726d697469646f206120616c756d6e6f73206d61747269637560008201527f6c61646f73000000000000000000000000000000000000000000000000000000602082015250565b60006139a66025836126e5565b91506139b18261394a565b604082019050919050565b600060208201905081810360008301526139d581613999565b9050919050565b7f536f6c6f207065726d697469646f20616c20636f6f7264696e61646f72206f2060008201527f70726f6665736f72000000000000000000000000000000000000000000000000602082015250565b6000613a386028836126e5565b9150613a43826139dc565b604082019050919050565b60006020820190508181036000830152613a6781613a2b565b9050919050565b7f4e487b7100000000000000000000000000000000000000000000000000000000600052603260045260246000fd5b7f456c20696e64696365206465206c61206576616c756163696f6e206e6f20657860008201527f697374652e000000000000000000000000000000000000000000000000000000602082015250565b6000613af96025836126e5565b9150613b0482613a9d565b604082019050919050565b60006020820190508181036000830152613b2881613aec565b9050919050565b7f456c206e6f6d627265206e6f2070756564652073657220766163696f00000000600082015250565b6000613b65601c836126e5565b9150613b7082613b2f565b602082019050919050565b60006020820190508181036000830152613b9481613b58565b9050919050565b7f456c20646e69206e6f2070756564652073657220766163696f00000000000000600082015250565b6000613bd16019836126e5565b9150613bdc82613b9b565b602082019050919050565b60006020820190508181036000830152613c0081613bc4565b9050919050565b600081905092915050565b6000613c1d82612c4e565b613c278185613c07565b9350613c37818560208601612c59565b80840191505092915050565b6000613c4f8284613c12565b915081905092915050565b6000613c65826128e2565b91507fffffffffffffffffffffffffffffffffffffffffffffffffffffffffffffffff8203613c9757613c9661347d565b5b600182019050919050565b6000613cad826128e2565b9150613cb8836128e2565b9250828202613cc6816128e2565b91508282048414831517613cdd57613cdc61347d565b5b5092915050565b7f4e487b7100000000000000000000000000000000000000000000000000000000600052601260045260246000fd5b6000613d1e826128e2565b9150613d29836128e2565b925082613d3957613d38613ce4565b5b828204905092915050565b6000613d4f826128e2565b9150613d5a836128e2565b9250828201905080821115613d7257613d7161347d565b5b9291505056fea26469706673582212203277cbef9ac6bbe38d81bf213bb0d9810e9b3415c8ffe1e51706d3a64a0c4fe564736f6c63430008110033",
  "immutableReferences": {},
  "source": "// SPDX-License-Identifier: UNLICENSED\npragma solidity ^0.8.17;\n/**\n * El contrato Asignatura que representa una asignatura de la carrera.\n *\n * Version Full\n */\ncontract Asignatura {\n /// Version 2022 Full - Teoria\n string public version = \"2022 Full\";\n\n // Address del usuario que ha desplegado el contrato.\n address public owner;\n\n // Coordinador de la asignatura\n address public coordinador;\n\n // Estado de la asignatura\n bool public cerrada;\n\n /// Nombre de la asignatura\n string public nombre;\n\n /// Curso academico\n string public curso;\n\n\n// Acceder al nombre de un profesor data su direccion\n mapping (address => string) public datosProfesor;\n // Array con las direcciones de los profesores aadidos\n address[] public profesores;\n\n/// Datos de un alumno.\n struct DatosAlumno {\n string nombre;\n string dni;\n string email;\n }\n\n// Acceder a los datos de un alumno dada su direccion.\n mapping (address => DatosAlumno) public datosAlumno;\n// Array con las direcciones de los alumnos matriculados.\n address[] public matriculas;\n\n// Valores de dni usados clave el dni valor la direccion de alumno del dni\nmapping (string => address) public dniUsados;\n\n /**\n * Datos de una evaluacion.\n */\n struct Evaluacion {\n string nombre;\n uint fecha;\n uint porcentaje;\n uint minimo;\n }\n\n /// Evaluaciones de la asignatura.\n Evaluacion[] public evaluaciones;\n\n /// Tipos de notas: sin usar, no presentado, y nota normal entre 0 y 1000.\n enum TipoNota {Empty, NP, Normal}\n\n /**\n * Datos de una nota.\n * La calificacion esta multiplicada por 100 porque no hay decimales.\n */\n struct Nota {\n TipoNota tipo;\n uint calificacion;\n }\n\n // Dada la direccion de un alumno, y el indice de la evaluacion, devuelve\n // la nota del alumno.\n mapping (address => mapping (uint => Nota)) public calificaciones;\n\n// Error usado para indicar que un dni esta duplicado\n error DNIDuplicadoError(string dni);\n\n /**\n * Constructor.\n *\n * @param _nombre Nombre de la asignatura.\n * @param _curso Curso academico.\n */\n constructor(string memory _nombre, string memory _curso) {\n require(bytes(_nombre).length != 0, \"El nombre de la asignatura no puede ser vacio\");\n require(bytes(_curso).length != 0, \"El curso academico de la asignatura no puede ser vacio\");\n\n owner = msg.sender;\n nombre = _nombre;\n curso = _curso;\n }\n\n\n/** \n  *  Asignar la direccion del usuario coordinador\n  *  @param addr direccion del usuario coordinador\n*/\n function setCoordinador(address addr) soloOwner soloAbierta public {\n  coordinador = addr;\n }\n\n /** \n  *  Cerrar asignatura\n*/\n function cerrar() soloCoordinador public {\n  cerrada = true;\n }\n\n\n/** \n  *  Aadir un profesor nuevo e impedir que metan un nombre vacio\n  *  @param _addr direccion del profesor\n*  @param _nombre nombre del profesor\n*/\n function addProfesor(address _addr, string memory _nombre) soloOwner soloAbierta public {\n  require(bytes(datosProfesor[_addr]).length == 0, \"Ese profesor ya ha sido added como profesor\");\n  require(bytes(_nombre).length != 0, \"El nombre de profesor no puede ser vacio\");\n  datosProfesor[_addr] = _nombre;\n  profesores.push(_addr);\n }\n\n/**\n    * @return el numero de profesores aadidos\n */\n\n function profesoresLength() public view returns(uint) {\n  return profesores.length;\n }\n\n /**\n * Los alumnos pueden automatricularse con el metodo automatricula.\n *\n * Impedir que se pueda meter un nombre o un dni vacios.\n *\n * El valor del dni debe ser unico\n * @param _nombre El nombre del alumno.\n * @param _dni El dni del alumno.\n * @param _email El email del alumno.\n */\n function automatricula(string memory _nombre, string memory _dni, string memory _email) soloNoMatriculados soloAbierta public {\n _matricular(msg.sender, _nombre, _dni, _email);\n }\n\n/**\n* El owner puede matricular alumnos\n */\n\n function matricular (address _addr, string memory _nombre, string memory _dni, string memory _email) soloOwner soloNoMatriculados soloAbierta public {\n _matricular(_addr, _nombre, _dni, _email);\n }\n\n function _matricular(address _addr, string memory _nombre, string memory _dni, string memory _email)  soloNoMatriculados soloAbierta private {\n  require(bytes(_nombre).length != 0, \"El nombre no puede ser vacio\");\n  require(bytes(_dni).length != 0, \"El dni no puede ser vacio\");\n  if(dniUsados[_dni] != address(0x0)){\n    revert DNIDuplicadoError({dni:_dni});\n  }\n DatosAlumno memory datos = DatosAlumno(_nombre, _dni, _email);\n datosAlumno[_addr] = datos;\n dniUsados[_dni] = _addr;\n matriculas.push(_addr);\n}\n\n /**\n * El numero de alumnos matriculados.\n *\n * @return El numero de alumnos matriculados.\n */\n function matriculasLength() public view returns(uint) {\n return matriculas.length;\n }\n\n /**\n * Permite a un alumno obtener sus propios datos.\n *\n * @return _nombre El nombre del alumno que invoca el metodo.\n * @return _dni El dni del alumno que invoca el metodo.\n * @return _email El email del alumno que invoca el metodo.\n */\n function quienSoy() soloMatriculados public view returns (string memory _nombre, string memory _dni, string memory _email) {\n DatosAlumno memory datos = datosAlumno[msg.sender];\n _nombre = datos.nombre;\n _dni = datos.dni;\n _email = datos.email;\n }\n\n /**\n * Crear una prueba de evaluacion de la asignatura. Por ejemplo, el primer parcial, o la practica 3.\n *\n * Las evaluaciones se meteran en el array evaluaciones, y nos referiremos a ellas por su posicion en el\narray.\n *\n * @param _nombre El nombre de la evaluacion.\n * @param _fecha La fecha de evaluacion (segundos desde el 1/1/1970).\n * @param _porcentaje El porcentaje de puntos que proporciona a la nota final.\n *\n * @return La posicion en el array evaluaciones,\n */\n function creaEvaluacion(string memory _nombre, uint _fecha, uint _porcentaje, uint _minimo) soloCoordinador soloAbierta public returns\n(uint) {\n require(bytes(_nombre).length != 0, \"El nombre de la evaluacion no puede ser vacio\");\n\n evaluaciones.push(Evaluacion(_nombre, _fecha, _porcentaje, _minimo));\n return evaluaciones.length - 1;\n }\n\n /**\n  * FUNCION AADIDA PARA LA PRACTICA 7\n  *  \n  * Editar una prueba de evaluacion de la asignatura. \n  *  \n  * @param _id El indice de la evaluacion en el array de Evaluaciones.\n  * @param _nombre El nuevo nombre de la evaluacion.\n  * @param _fecha La nueva fecha de evaluacin.\n  * @param _porcentaje El nuevo porcentaje de puntos que se proporciona a la nota final.\n  * @param _minimo El nuevo minimo de puntos que se necesita para superar la evaluacion.\n  */\n\n  function editarEvaluacion(uint _id, string memory _nombre, uint _fecha, uint _porcentaje, uint _minimo) soloCoordinador soloAbierta public {\n    require(bytes(_nombre).length != 0, \"El nombre de la evaluacion no puede ser vacio\");\n    evaluaciones[_id] = Evaluacion(_nombre, _fecha, _porcentaje, _minimo);\n  }\n\n /**\n * El numero de evaluaciones creadas.\n *\n * @return El numero de evaluaciones creadas.\n */\n function evaluacionesLength() public view returns(uint) {\n return evaluaciones.length;\n }\n\n /**\n * Poner la nota de un alumno en una evaluacion.\n *\n * @param alumno La direccion del alumno.\n * @param evaluacion El indice de una evaluacion en el array evaluaciones.\n * @param tipo Tipo de nota.\n * @param calificacion La calificacion, multipilicada por 100 porque no hay decimales.\n */\n function califica(address alumno, uint evaluacion, TipoNota tipo, uint calificacion) soloProfesor soloAbierta public {\n require(estaMatriculado(alumno), \"Solo se pueden calificar a un alumno matriculado.\");\n require(evaluacion < evaluaciones.length, \"No se puede calificar una evaluacion que no existe.\");\n require(calificacion <= 1000, \"No se puede calificar con una nota superior a la maxima permitida.\");\n Nota memory nota = Nota(tipo, calificacion);\n\n calificaciones[alumno][evaluacion] = nota;\n }\n\n /**\n * Devuelve el tipo de nota y la calificacion que ha sacado el alumno que invoca el metodo en la evaluacion\npasada como parametro.\n *\n * @param evaluacion Indice de una evaluacion en el array de evaluaciones.\n *\n * @return tipo El tipo de nota que ha sacado el alumno.\n * @return calificacion La calificacion que ha sacado el alumno.\n */\n function miNota(uint evaluacion) soloMatriculados public view returns (TipoNota tipo, uint calificacion) {\n require(evaluacion < evaluaciones.length, \"El indice de la evaluacion no existe.\");\n\n Nota memory nota = calificaciones[msg.sender][evaluacion];\n\n tipo = nota.tipo;\n calificacion = nota.calificacion;\n }\n\n/**\n* Devuelve la nota final del alumno que llama a este metodo\n* Si el tipo de nmota de alguna de las evaluaciones es empty, es decir, aun no se ha asignado la calificacion, entonces este metodo devuelve (Empty,0)\n* Si todas las calificaciones son NP, devuelve (NP, 0). \n* En otro caso devuelve la nota final aplicando los porcentajes adecuados.\n* Si la nota final es superior 499, y hay alguna evaluacion es NP entonces devuelve coomo maximo 499.\n* @return tipo el tipo de nota que ha sacado el alumno\n* @return calificacion la calificacion que ha sacado el alumno\n */\nfunction miNotaFinal() soloMatriculados public view returns (TipoNota tipo, uint calificacion) {\n    return _notaFinal(msg.sender);\n }\n\n\n/**\n* Devuelve la nota final del alumno indicado\n* @param _addr el address del alumno.\n* @return tipo el tipo de nota que ha sacado el alumno\n* @return calificacion la calificacion que ha sacado el alumno\n */\n\n function notaFinal(address _addr) soloCoordinadorProfesor public view returns (TipoNota tipo, uint calificacion) {\n    return _notaFinal(_addr);\n }\n\n function _notaFinal(address _addr) private view returns (TipoNota tipo, uint calificacion) {\n    tipo = TipoNota.NP;\n    for(uint i=0; i < evaluaciones.length; i++){\n        if(calificaciones[_addr][i].tipo == TipoNota.Empty){\n            return (TipoNota.Empty, 0);\n        }\n        if(calificaciones[_addr][i].tipo == TipoNota.Normal){\n            tipo = TipoNota.Normal;\n            continue;\n        }\n    }\n    if(tipo == TipoNota.NP){\n        return (tipo, 0);\n    }\n    bool suspenso = false;\n    uint nota = 0;\n\n    for(uint i=0; i < evaluaciones.length; i++){\n        if(calificaciones[_addr][i].calificacion < evaluaciones[i].minimo){\n            suspenso = true;\n        }\n        nota += calificaciones[_addr][i].calificacion * evaluaciones[i].porcentaje / 100;\n    }\n    if(suspenso && nota>499){\n        nota = 499;\n    }\n    tipo = TipoNota.Normal;\n    calificacion = nota;\n }\n\n\n /**\n * Consulta si una direccion pertenece a un alumno matriculado.\n *\n * @param alumno La direccion de un alumno.\n *\n * @return true si es una alumno matriculado.\n */\n function estaMatriculado(address alumno) private view returns (bool) {\n string memory _nombre = datosAlumno[alumno].nombre;\n\n return bytes(_nombre).length != 0;\n }\n\n /**\n * Modificador para que una funcion solo la pueda ejecutar el owner.\n *\n * Se usa en setCoordinador y en addProfesor.\n */\n modifier soloOwner() {\n require(msg.sender == owner, \"Solo permitido al owner\");\n _;\n }\n\n\n  /**\n * Modificador para que una funcion solo la pueda ejecutar el coordinador.\n *\n * Se usa en cerrar y en creaEvaluacion.\n */\n modifier soloCoordinador() {\n require(msg.sender == coordinador, \"Solo permitido al coordinador\");\n _;\n }\n\n\n /**\n * Modificador para que una funcion solo la pueda ejecutar el profesor.\n *\n * Se usa en califica.\n */\n modifier soloProfesor() {\n string memory _nombre = datosProfesor[msg.sender];\n require(bytes(_nombre).length != 0, \"Solo permitido al profesor\");\n _;\n }\n\n\n /**\n * Modificador para que una funcion solo la pueda ejecutar un alumno matriculado.\n */\n modifier soloMatriculados() {\n require(estaMatriculado(msg.sender), \"Solo permitido a alumnos matriculados\");\n _;\n }\n\n /**\n * Modificador para que una funcion solo la pueda ejecutar un alumno no matriculado aun.\n */\n modifier soloNoMatriculados() {\n require(!estaMatriculado(msg.sender), \"Solo permitido a alumnos no matriculados\");\n _;\n }\n\n /**\n * Modificador para que una funcion solo la pueda ejecutar si la asignatura no esta cerrada.\n *\n * Se usa en setCoordinador, addProfesor, automatricula, creaEvaluacion y en califica.\n */\n modifier soloAbierta() {\n require(!cerrada, \"Solo permitido si la asignatura no esta cerrada\");\n _;\n }\n\n /** \n * AADIDO PARA LA PRACTICA 7\n *\n * Modificador para que una funcion solo la pueda ejecutar el coordinador o profesor.\n *\n * Se usa en notaFinal.\n */\n modifier soloCoordinadorProfesor() {\n  string memory _nombre = datosProfesor[msg.sender];\n  require(((msg.sender == coordinador) || (bytes(nombre).length != 0)) , \"Solo permitido al coordinador o profesor\");\n  _;\n }\n\n /**\n * No se permite la recepcion de dinero.\n */\n receive() external payable {\n revert(\"No se permite la recepcion de dinero.\");\n }\n }\n",
  "sourcePath": "/home/jantona/Escritorio/muit/bcda/PracticaFinal/BCDA_PracticaFinal_2022/truffle/contracts/Asignatura.sol",
  "compiler": {
    "name": "solc",
    "version": "0.8.17+commit.8df45f5f.Emscripten.clang"
  },
  "schemaVersion": "3.4.11",
  "updatedAt": "2023-01-06T20:48:57.588Z",
  "networkType": "ethereum",
  "devdoc": {
    "kind": "dev",
    "methods": {
      "addProfesor(address,string)": {
        "params": {
          "_addr": "direccion del profesor",
          "_nombre": "nombre del profesor"
        }
      },
      "automatricula(string,string,string)": {
        "params": {
          "_dni": "El dni del alumno.",
          "_email": "El email del alumno.",
          "_nombre": "El nombre del alumno."
        }
      },
      "califica(address,uint256,uint8,uint256)": {
        "params": {
          "alumno": "La direccion del alumno.",
          "calificacion": "La calificacion, multipilicada por 100 porque no hay decimales.",
          "evaluacion": "El indice de una evaluacion en el array evaluaciones.",
          "tipo": "Tipo de nota."
        }
      },
      "constructor": {
        "params": {
          "_curso": "Curso academico.",
          "_nombre": "Nombre de la asignatura."
        }
      },
      "creaEvaluacion(string,uint256,uint256,uint256)": {
        "params": {
          "_fecha": "La fecha de evaluacion (segundos desde el 1/1/1970).",
          "_nombre": "El nombre de la evaluacion.",
          "_porcentaje": "El porcentaje de puntos que proporciona a la nota final."
        },
        "returns": {
          "_0": "La posicion en el array evaluaciones,"
        }
      },
      "editarEvaluacion(uint256,string,uint256,uint256,uint256)": {
        "params": {
          "_fecha": "La nueva fecha de evaluacin.",
          "_id": "El indice de la evaluacion en el array de Evaluaciones.",
          "_minimo": "El nuevo minimo de puntos que se necesita para superar la evaluacion.",
          "_nombre": "El nuevo nombre de la evaluacion.",
          "_porcentaje": "El nuevo porcentaje de puntos que se proporciona a la nota final."
        }
      },
      "evaluacionesLength()": {
        "returns": {
          "_0": "El numero de evaluaciones creadas."
        }
      },
      "matriculasLength()": {
        "returns": {
          "_0": "El numero de alumnos matriculados."
        }
      },
      "miNota(uint256)": {
        "params": {
          "evaluacion": "Indice de una evaluacion en el array de evaluaciones."
        },
        "returns": {
          "calificacion": "La calificacion que ha sacado el alumno.",
          "tipo": "El tipo de nota que ha sacado el alumno."
        }
      },
      "miNotaFinal()": {
        "returns": {
          "calificacion": "la calificacion que ha sacado el alumno",
          "tipo": "el tipo de nota que ha sacado el alumno"
        }
      },
      "notaFinal(address)": {
        "params": {
          "_addr": "el address del alumno."
        },
        "returns": {
          "calificacion": "la calificacion que ha sacado el alumno",
          "tipo": "el tipo de nota que ha sacado el alumno"
        }
      },
      "profesoresLength()": {
        "returns": {
          "_0": "el numero de profesores aadidos"
        }
      },
      "quienSoy()": {
        "returns": {
          "_dni": "El dni del alumno que invoca el metodo.",
          "_email": "El email del alumno que invoca el metodo.",
          "_nombre": "El nombre del alumno que invoca el metodo."
        }
      },
      "setCoordinador(address)": {
        "params": {
          "addr": "direccion del usuario coordinador"
        }
      }
    },
    "version": 1
  },
  "userdoc": {
    "kind": "user",
    "methods": {
      "addProfesor(address,string)": {
        "notice": "Aadir un profesor nuevo e impedir que metan un nombre vacio"
      },
      "automatricula(string,string,string)": {
        "notice": "Los alumnos pueden automatricularse con el metodo automatricula. Impedir que se pueda meter un nombre o un dni vacios. El valor del dni debe ser unico"
      },
      "califica(address,uint256,uint8,uint256)": {
        "notice": "Poner la nota de un alumno en una evaluacion."
      },
      "cerrar()": {
        "notice": "Cerrar asignatura"
      },
      "constructor": {
        "notice": "Constructor."
      },
      "creaEvaluacion(string,uint256,uint256,uint256)": {
        "notice": "Crear una prueba de evaluacion de la asignatura. Por ejemplo, el primer parcial, o la practica 3. Las evaluaciones se meteran en el array evaluaciones, y nos referiremos a ellas por su posicion en el array."
      },
      "curso()": {
        "notice": "Curso academico"
      },
      "editarEvaluacion(uint256,string,uint256,uint256,uint256)": {
        "notice": "FUNCION AADIDA PARA LA PRACTICA 7   Editar una prueba de evaluacion de la asignatura.   "
      },
      "evaluaciones(uint256)": {
        "notice": "Evaluaciones de la asignatura."
      },
      "evaluacionesLength()": {
        "notice": "El numero de evaluaciones creadas."
      },
      "matricular(address,string,string,string)": {
        "notice": "El owner puede matricular alumnos"
      },
      "matriculasLength()": {
        "notice": "El numero de alumnos matriculados."
      },
      "miNota(uint256)": {
        "notice": "Devuelve el tipo de nota y la calificacion que ha sacado el alumno que invoca el metodo en la evaluacion pasada como parametro."
      },
      "miNotaFinal()": {
        "notice": "Devuelve la nota final del alumno que llama a este metodo Si el tipo de nmota de alguna de las evaluaciones es empty, es decir, aun no se ha asignado la calificacion, entonces este metodo devuelve (Empty,0) Si todas las calificaciones son NP, devuelve (NP, 0).  En otro caso devuelve la nota final aplicando los porcentajes adecuados. Si la nota final es superior 499, y hay alguna evaluacion es NP entonces devuelve coomo maximo 499."
      },
      "nombre()": {
        "notice": "Nombre de la asignatura"
      },
      "notaFinal(address)": {
        "notice": "Devuelve la nota final del alumno indicado"
      },
      "quienSoy()": {
        "notice": "Permite a un alumno obtener sus propios datos."
      },
      "setCoordinador(address)": {
        "notice": "Asignar la direccion del usuario coordinador"
      },
      "version()": {
        "notice": "Version 2022 Full - Teoria"
      }
    },
    "notice": "El contrato Asignatura que representa una asignatura de la carrera. Version Full",
    "version": 1
  }
}